S01D00004C45445F4D61747269785F41544D454741323536302E7372656383
S113000071C0000079C0000077C0000075C0000016
S113001073C0000071C000006FC000006DC000001C
S11300206BC0000069C0000067C0000065C000002C
S113003063C0000061C000005FC000005DC000003C
S11300405BC0000059C0000057C0000055C000004C
S113005053C0000051C000004FC000004DC000005C
S11300604BC0000049C0000047C0000045C000006C
S113007043C0000041C000003FC000003DC000007C
S11300803BC0000039C0000037C0000035C000008C
S113009033C0000031C000002FC000002DC000009C
S11300A02BC0000029C0000027C0000025C00000AC
S11300B023C0000021C000001FC000001DC00000BC
S11300C01BC0000019C0000017C0000015C00000CC
S11300D013C0000011C000000FC000000DC00000DC
S11300E00BC0000011241FBECFEFD1E2DEBFCDBF95
S11300F000E00CBF88D05CC183CFDF92EF92FF9207
S11301000F931F93CF93DF931F92CDB7DEB78C016C
S1130110E12C6BC080E4E89E90011124F901F8966B
S1130120E00FF11F8F2D90E0E80FF91F4081F901D6
S1130130F096E00FF11FE80FF91FD080F901B8968F
S1130140E00FF11FE80FF91FB081F901B096E00F3D
S1130150F11FE80FF91FA081F9017896E00FF11F54
S1130160E80FF91F7081F9017096E00FF11FE80F95
S1130170F91F6081F9013896E00FF11FE80FF91FAC
S11301805081200F311FF901E80FF91F2081842FBE
S113019087958827879590E4D99E800D112490E255
S11301A0B99F800D112490E1A99F800D1124972FF0
S11301B0990F990F990F890F962F990F990F890FFE
S11301C0952F990F890F820F89838981882329F0BC
S11301D0498168E06F198E2D95D0F39401C0F12CFC
S11301E087E08F1508F096CFE39493E09E15B8F757
S11301F00F90DF91CF911F910F91FF90EF90DF90BF
S11302000895A7C00895CF93DF93CDB7DEB7DA95ED
S11302100FB6F894DEBF0FBECDBFAED000E01EC057
S1130220CE010196EEDFE02FF0E0EE0FFF1FEE0FA0
S1130230FF1FEE0FFF1F81E090E08C0F9D1FE80F62
S1130240F91FE10FF11D81E08083CE01019655DF96
S11302501F5F01C010E0183018F30F5F0032D0F3B5
S1130260DDCFCF93DF931F92CDB7DEB7198220E0A5
S11302701EC0662329F0982F91709983869504C037
S1130280982F90789983880F9981992321F098B1B8
S1130290946098B903C098B19B7F98B998B1916064
S11302A098B9000098B19E7F98B900002F5F28305C
S11302B000F30F90DF91CF910895CF93C62F60E0A4
S11302C0D0DF60E08C2FCDDFCF910895CF93DF9303
S11302D01F92CDB7DEB7198206C060E080E0EDDF83
S11302E089818F5F898389818430B8F30F90DF918E
S11302F0CF91089588B1826088B9000088B18D7F5C
S113030088B90895FF920F931F93CF93DF931F92A1
S1130310CDB7DEB7182FF62E042FD8DF19820DC003
S11303208981811104C0602F8F2DC7DF03C060E075
S113033080E0C3DF89818F5F89838981181780F703
S1130340D9DFC4DF0F90DF91CF911F910F91FF9000
S11303500895CF93DF93D0E00AC0CF5F40E06C2FC5
S11303608D2FD0DF01C0C0E0C830B8F3DF5FD430D8
S1130370D0F3DF91CF910895CF9387B1876087B988
S1130380C0E011C040E06FE08C2FBCDF41E06CE0C6
S11303908C2FB8DF47E06BE08C2FB4DF42E06AE0DB
S11303A08C2FB0DFCF5FC43068F3D3DFCF910895D3
S10703B0F894FFCFEB
S9030000FC
