S01D00004C45445F4D61747269785F41544D454741323536302E7372656383
S113000071C0000081C000007FC000007DC00000FE
S11300107BC0000079C0000077C0000075C00000FC
S113002073C0000071C000006FC000006DC000000C
S11300306BC0000069C0000067C0000065C000001C
S113004063C0000061C000005FC000005DC000002C
S11300505BC0000059C0000057C0000055C000003C
S113006053C0000051C000004FC000004DC000004C
S11300704BC0000049C0000047C0000045C000005C
S113008043C0000041C000003FC000003DC000006C
S11300903BC0000039C0000037C0000035C000007C
S11300A033C0000031C000002FC000002DC000008C
S11300B02BC0000029C0000027C0000025C000009C
S11300C023C0000021C000001FC000001DC00000AC
S11300D01BC0000019C0000017C0000015C00000BC
S11300E013C0000011241FBECFEFD1E2DEBFCDBF8D
S11300F000E00CBF23E0A0E0B2E001C01D92A030FC
S1130100B207E1F701D181C17BCF2F923F924F9289
S11301105F926F927F928F929F92AF92BF92CF9293
S1130120DF92EF92FF920F931F93CF93DF93CDB79C
S1130130DEB72A970FB6F894DEBF0FBECDBF7C01A1
S1130140212C2E8255C0F301E00FF11F8081F401B0
S1130150E00FF11F7081F501E00FF11F6081EC8168
S1130160FD81E00FF11F5081F201E00FF11F40818A
S1130170F101E00FF11F3081F601E00FF11F208142
S1130180EA81FB81E00FF11F90818795882787958D
S1130190E0E47E9F800D1124890F90E2699F800D19
S11301A01124E0E15E9F800D1124942F990F990F83
S11301B0990F890F932F990F990F890F922F990FE8
S11301C0890F89838981882321F049816F2D8E814C
S11301D0D8D0FA940F5F1F4FF110B5CFE984FA8499
S11301E08E818F5F8E8390E4E90EF11C843041F19F
S11301F03701E8E36E0E711C470180E3880E911C01
S1130200570198E2A90EB11CC70180969D838C8387
S1130210270198E1490E511C1701E0E12E0E311C13
S1130220C701089698878F83FB82EA8200E010E07A
S11302306894DD24D3F8FA86E986FD2C6C0183CF1B
S11302402A960FB6F894DEBF0FBECDBFDF91CF91D3
S11302501F910F91FF90EF90DF90CF90BF90AF90E0
S11302609F908F907F906F905F904F903F902F90D2
S11302700895BC0173950DC0FA01E20FF31F1082BB
S11302802F5F3F4F28303105B9F708966817790773
S113029021F0AC0120E030E0EFCFA4C00895CF926C
S11302A0DF92FF920F931F93CF93DF93C12CD12C36
S11302B0FF24F39415C080E092E0DBDFF801EC0F3B
S11302C0FD1FF08280E092E020DF2196C830D10546
S11302D091F78FEFC81AD80A80E2C816D10461F0EA
S11302E0C0E0D0E08601000F111F000F111F000FA6
S11302F0111F00501E4FDFCFDF91CF911F910F913F
S1130300FF90DF90CF900895CADFFECFCF93DF93A5
S11303101F92CDB7DEB7198298E0662329F0282F03
S113032021702983869504C0282F20782983880F7B
S11303302981222311F0429A01C04298409A000078
S113034040980000915049F70F90DF91CF910895A4
S1130350CF93DF931F92CDB7DEB7198289818430A2
S113036060F460E080E0D2DF60E080E0CFDF89818C
S11303708F5F898389818430A0F30F90DF91CF91BF
S11303800895FF920F931F93CF93DF931F92CDB7DE
S1130390DEB7182FF62E042FDBDF19828981181798
S11303A0B0F08981811107C060E08F2DAFDF60E07C
S11303B0802FACDF06C060E080E0A8DF60E080E072
S11303C0A5DF89818F5F89838981181750F7419A46
S11303D000004198BDDF0F90DF91CF911F910F91E5
S11303E0FF900895CF93DF93D0E00AC0CF5F40E041
S11303F06C2F8D2FC6DFC830C9F7DF5FD43011F002
S1110400C0E0F4CFDF91CF910895F894FFCFC0
S9030000FC
