:1000000071C000008EC000008CC000008AC00000DB
:1000100088C0000086C0000084C0000082C00000CC
:1000200080C000007EC000007CC000007AC00000DC
:1000300078C0000076C0000074C0000072C00000EC
:1000400070C000006EC000006CC000006AC00000FC
:1000500068C0000066C0000064C0000062C000000C
:1000600060C000005EC000005CC000005AC000001C
:1000700058C0000056C0000054C0000052C000002C
:1000800050C000004EC000004CC000004AC000003C
:1000900048C0000046C0000044C0000042C000004C
:1000A00040C000003EC000003CC000003AC000005C
:1000B00038C0000036C0000034C0000032C000006C
:1000C00030C000002EC000002CC000002AC000007C
:1000D00028C0000026C0000024C0000022C000008C
:1000E00020C0000011241FBECFEFD1E2DEBFCDBF84
:1000F00000E00CBF12E0A0E0B2E0E0EEF1E000E0D2
:100100000BBF02C007900D92A034B107D9F722E0CF
:10011000A0E4B2E001C01D92A034B207E1F75CD0C8
:100120005DC06ECF0F931F93CF93DF93CDB7DEB734
:1001300061970FB6F894DEBF0FBECDBFFE013196BA
:100140009E012F5E3F4F819391930896E217F3072C
:10015000D1F78E010D571F4F60E06F5FA801405827
:100160005109198A962F88E0292F2078298B990F19
:100170002989222311F0429A01C04298409A40985E
:10018000815091F79A01205F3F4FF901B291A291FE
:100190008C91882311F0429A01C04298409A40986D
:1001A000E417F50799F7A90120173107D1F6419A0D
:1001B00041980E5F1F4F683081F661960FB6F89434
:1001C000DEBF0FBECDBFDF91CF911F910F9108957C
:1001D00080E092E0A7CF0895FBDFFFCFF894FFCF38
:1001E0000001000100010001010001000100010007
:1001F00000010001000100010100010001000100F7
:1002000000010001000100010100010001000100E6
:1002100000010001000100010100010001000100D6
:00000001FF
