:1000000071C000008EC000008CC000008AC00000DB
:1000100088C0000086C0000084C0000082C00000CC
:1000200080C000007EC000007CC000007AC00000DC
:1000300078C0000076C0000074C0000072C00000EC
:1000400070C000006EC000006CC000006AC00000FC
:1000500068C0000066C0000064C0000062C000000C
:1000600060C000005EC000005CC000005AC000001C
:1000700058C0000056C0000054C0000052C000002C
:1000800050C000004EC000004CC000004AC000003C
:1000900048C0000046C0000044C0000042C000004C
:1000A00040C000003EC000003CC000003AC000005C
:1000B00038C0000036C0000034C0000032C000006C
:1000C00030C000002EC000002CC000002AC000007C
:1000D00028C0000026C0000024C0000022C000008C
:1000E00020C0000011241FBECFEFD1E2DEBFCDBF84
:1000F00000E00CBF12E0A0E0B2E0E0EDF2E000E0D2
:100100000BBF02C007900D92A034B107D9F722E0CF
:10011000A0E4B2E001C01D92A034B207E1F7D4D050
:10012000D5C06ECFCF93DF931F92CDB7DEB71982C4
:1001300020E01CC0662329F0982F91709983869542
:1001400004C0982F90789983880F9981992321F082
:1001500098B1946098B903C098B19B7F98B998B151
:10016000916098B998B19E7F98B92F5F283010F3AD
:100170000F90DF91CF910895CF93DF931F92CDB76A
:10018000DEB7AC0190E02EC061110CC0E92FF0E0A9
:10019000EE0FFF1FE40FF51F0190F081E02D80812D
:1001A00089830FC0E92FF0E0F195E195F109EE0F99
:1001B000FF1F7096E40FF51F0190F081E02D808104
:1001C00089838981882321F088B1846088B903C03C
:1001D00088B18B7F88B928B1216028B928B12E7FDA
:1001E00028B99F5F983080F20F90DF91CF910895EA
:1001F00088B1826088B988B18D7F88B90895FF92EF
:100200000F931F93CF93DF93F82E8B01D42FC0E071
:100210000CC060E08F2D86DF61E0C80120E1C29F45
:10022000800D911D1124A8DFCF5FCD1790F3E0DF83
:10023000DF91CF911F910F91FF9008951F93CF935E
:10024000DF93CDB7DEB760970FB6F894DEBF0FBE71
:10025000CDBFBC0190E016C0292F30E0A901440FAA
:10026000551F440F551F440F551F460F571F220F90
:10027000331FE1E0F0E0EC0FFD1FE20FF31F5183AD
:1002800040839F5F983040F310E00EC0612F70E014
:10029000660F771F1F5F81E090E08C0F9D1F680F36
:1002A000791F40E1812FABDF183080F360960FB6E5
:1002B000F894DEBF0FBECDBFDF91CF911F9108959F
:1002C00080E092E0BBCF0895FBDFFFCFF894FFCF33
:1002D0000001000100010001010001000100010016
:1002E0000001000100010001010001000100010006
:1002F00000010001000100010100010001000100F6
:1003000000010001000100010100010001000100E5
:00000001FF
